{
  "abi": [
    {
      "inputs": [],
      "stateMutability": "nonpayable",
      "type": "constructor"
    },
    {
      "anonymous": false,
      "inputs": [
        {
          "indexed": true,
          "internalType": "address",
          "name": "owner",
          "type": "address"
        },
        {
          "indexed": true,
          "internalType": "address",
          "name": "approved",
          "type": "address"
        },
        {
          "indexed": true,
          "internalType": "uint256",
          "name": "tokenId",
          "type": "uint256"
        }
      ],
      "name": "Approval",
      "type": "event"
    },
    {
      "anonymous": false,
      "inputs": [
        {
          "indexed": true,
          "internalType": "address",
          "name": "owner",
          "type": "address"
        },
        {
          "indexed": true,
          "internalType": "address",
          "name": "operator",
          "type": "address"
        },
        {
          "indexed": false,
          "internalType": "bool",
          "name": "approved",
          "type": "bool"
        }
      ],
      "name": "ApprovalForAll",
      "type": "event"
    },
    {
      "anonymous": false,
      "inputs": [
        {
          "indexed": true,
          "internalType": "uint256",
          "name": "_tokenId",
          "type": "uint256"
        },
        {
          "indexed": false,
          "internalType": "string",
          "name": "_tokenURI",
          "type": "string"
        }
      ],
      "name": "TokenCreated",
      "type": "event"
    },
    {
      "anonymous": false,
      "inputs": [
        {
          "indexed": true,
          "internalType": "address",
          "name": "from",
          "type": "address"
        },
        {
          "indexed": true,
          "internalType": "address",
          "name": "to",
          "type": "address"
        },
        {
          "indexed": true,
          "internalType": "uint256",
          "name": "tokenId",
          "type": "uint256"
        }
      ],
      "name": "Transfer",
      "type": "event"
    },
    {
      "inputs": [
        {
          "internalType": "address",
          "name": "to",
          "type": "address"
        },
        {
          "internalType": "uint256",
          "name": "tokenId",
          "type": "uint256"
        }
      ],
      "name": "approve",
      "outputs": [],
      "stateMutability": "nonpayable",
      "type": "function"
    },
    {
      "inputs": [
        {
          "internalType": "address",
          "name": "owner",
          "type": "address"
        }
      ],
      "name": "balanceOf",
      "outputs": [
        {
          "internalType": "uint256",
          "name": "",
          "type": "uint256"
        }
      ],
      "stateMutability": "view",
      "type": "function"
    },
    {
      "inputs": [
        {
          "internalType": "uint256",
          "name": "tokenId",
          "type": "uint256"
        }
      ],
      "name": "getApproved",
      "outputs": [
        {
          "internalType": "address",
          "name": "",
          "type": "address"
        }
      ],
      "stateMutability": "view",
      "type": "function"
    },
    {
      "inputs": [
        {
          "internalType": "address",
          "name": "owner",
          "type": "address"
        },
        {
          "internalType": "address",
          "name": "operator",
          "type": "address"
        }
      ],
      "name": "isApprovedForAll",
      "outputs": [
        {
          "internalType": "bool",
          "name": "",
          "type": "bool"
        }
      ],
      "stateMutability": "view",
      "type": "function"
    },
    {
      "inputs": [],
      "name": "name",
      "outputs": [
        {
          "internalType": "string",
          "name": "",
          "type": "string"
        }
      ],
      "stateMutability": "view",
      "type": "function"
    },
    {
      "inputs": [
        {
          "internalType": "uint256",
          "name": "tokenId",
          "type": "uint256"
        }
      ],
      "name": "ownerOf",
      "outputs": [
        {
          "internalType": "address",
          "name": "",
          "type": "address"
        }
      ],
      "stateMutability": "view",
      "type": "function"
    },
    {
      "inputs": [
        {
          "internalType": "address",
          "name": "_to",
          "type": "address"
        },
        {
          "internalType": "string",
          "name": "_tokenURI",
          "type": "string"
        }
      ],
      "name": "safeMint",
      "outputs": [],
      "stateMutability": "nonpayable",
      "type": "function"
    },
    {
      "inputs": [
        {
          "internalType": "address",
          "name": "from",
          "type": "address"
        },
        {
          "internalType": "address",
          "name": "to",
          "type": "address"
        },
        {
          "internalType": "uint256",
          "name": "tokenId",
          "type": "uint256"
        }
      ],
      "name": "safeTransferFrom",
      "outputs": [],
      "stateMutability": "nonpayable",
      "type": "function"
    },
    {
      "inputs": [
        {
          "internalType": "address",
          "name": "from",
          "type": "address"
        },
        {
          "internalType": "address",
          "name": "to",
          "type": "address"
        },
        {
          "internalType": "uint256",
          "name": "tokenId",
          "type": "uint256"
        },
        {
          "internalType": "bytes",
          "name": "_data",
          "type": "bytes"
        }
      ],
      "name": "safeTransferFrom",
      "outputs": [],
      "stateMutability": "nonpayable",
      "type": "function"
    },
    {
      "inputs": [
        {
          "internalType": "address",
          "name": "operator",
          "type": "address"
        },
        {
          "internalType": "bool",
          "name": "approved",
          "type": "bool"
        }
      ],
      "name": "setApprovalForAll",
      "outputs": [],
      "stateMutability": "nonpayable",
      "type": "function"
    },
    {
      "inputs": [
        {
          "internalType": "bytes4",
          "name": "interfaceId",
          "type": "bytes4"
        }
      ],
      "name": "supportsInterface",
      "outputs": [
        {
          "internalType": "bool",
          "name": "",
          "type": "bool"
        }
      ],
      "stateMutability": "view",
      "type": "function"
    },
    {
      "inputs": [],
      "name": "symbol",
      "outputs": [
        {
          "internalType": "string",
          "name": "",
          "type": "string"
        }
      ],
      "stateMutability": "view",
      "type": "function"
    },
    {
      "inputs": [
        {
          "internalType": "uint256",
          "name": "tokenId",
          "type": "uint256"
        }
      ],
      "name": "tokenURI",
      "outputs": [
        {
          "internalType": "string",
          "name": "",
          "type": "string"
        }
      ],
      "stateMutability": "view",
      "type": "function"
    },
    {
      "inputs": [
        {
          "internalType": "address",
          "name": "from",
          "type": "address"
        },
        {
          "internalType": "address",
          "name": "to",
          "type": "address"
        },
        {
          "internalType": "uint256",
          "name": "tokenId",
          "type": "uint256"
        }
      ],
      "name": "transferFrom",
      "outputs": [],
      "stateMutability": "nonpayable",
      "type": "function"
    }
  ],
  "bytecode": {
    "object": "0x60806040523480156200001157600080fd5b50604080518082018252600b81526a13dc195b9318588813919560aa1b60208083019182528351808501909452600584526413d313919560da1b908401528151919291620000629160009162000081565b5080516200007890600190602084019062000081565b50505062000163565b8280546200008f9062000127565b90600052602060002090601f016020900481019282620000b35760008555620000fe565b82601f10620000ce57805160ff1916838001178555620000fe565b82800160010185558215620000fe579182015b82811115620000fe578251825591602001919060010190620000e1565b506200010c92915062000110565b5090565b5b808211156200010c576000815560010162000111565b600181811c908216806200013c57607f821691505b6020821081036200015d57634e487b7160e01b600052602260045260246000fd5b50919050565b61178c80620001736000396000f3fe608060405234801561001057600080fd5b50600436106100ea5760003560e01c806370a082311161008c578063b88d4fde11610066578063b88d4fde146101e1578063c87b56dd146101f4578063d204c45e14610207578063e985e9c51461021a57600080fd5b806370a08231146101a557806395d89b41146101c6578063a22cb465146101ce57600080fd5b8063095ea7b3116100c8578063095ea7b31461015757806323b872dd1461016c57806342842e0e1461017f5780636352211e1461019257600080fd5b806301ffc9a7146100ef57806306fdde0314610117578063081812fc1461012c575b600080fd5b6101026100fd366004611227565b610256565b60405190151581526020015b60405180910390f35b61011f6102a8565b60405161010e919061129c565b61013f61013a3660046112af565b61033a565b6040516001600160a01b03909116815260200161010e565b61016a6101653660046112e4565b6103c7565b005b61016a61017a36600461130e565b6104dc565b61016a61018d36600461130e565b61050d565b61013f6101a03660046112af565b610528565b6101b86101b336600461134a565b61059f565b60405190815260200161010e565b61011f610625565b61016a6101dc366004611365565b610634565b61016a6101ef36600461142d565b610643565b61011f6102023660046112af565b61067b565b61016a6102153660046114a9565b610686565b61010261022836600461150b565b6001600160a01b03918216600090815260056020908152604080832093909416825291909152205460ff1690565b60006001600160e01b031982166380ac58cd60e01b148061028757506001600160e01b03198216635b5e139f60e01b145b806102a257506301ffc9a760e01b6001600160e01b03198316145b92915050565b6060600080546102b79061153e565b80601f01602080910402602001604051908101604052809291908181526020018280546102e39061153e565b80156103305780601f1061030557610100808354040283529160200191610330565b820191906000526020600020905b81548152906001019060200180831161031357829003601f168201915b5050505050905090565b6000610345826106f2565b6103ab5760405162461bcd60e51b815260206004820152602c60248201527f4552433732313a20617070726f76656420717565727920666f72206e6f6e657860448201526b34b9ba32b73a103a37b5b2b760a11b60648201526084015b60405180910390fd5b506000908152600460205260409020546001600160a01b031690565b60006103d282610528565b9050806001600160a01b0316836001600160a01b03160361043f5760405162461bcd60e51b815260206004820152602160248201527f4552433732313a20617070726f76616c20746f2063757272656e74206f776e656044820152603960f91b60648201526084016103a2565b336001600160a01b038216148061045b575061045b8133610228565b6104cd5760405162461bcd60e51b815260206004820152603860248201527f4552433732313a20617070726f76652063616c6c6572206973206e6f74206f7760448201527f6e6572206e6f7220617070726f76656420666f7220616c6c000000000000000060648201526084016103a2565b6104d7838361070f565b505050565b6104e6338261077d565b6105025760405162461bcd60e51b81526004016103a290611578565b6104d7838383610867565b6104d783838360405180602001604052806000815250610643565b6000818152600260205260408120546001600160a01b0316806102a25760405162461bcd60e51b815260206004820152602960248201527f4552433732313a206f776e657220717565727920666f72206e6f6e657869737460448201526832b73a103a37b5b2b760b91b60648201526084016103a2565b60006001600160a01b0382166106095760405162461bcd60e51b815260206004820152602960248201527f4552433732313a2061646472657373207a65726f206973206e6f7420612076616044820152683634b21037bbb732b960b91b60648201526084016103a2565b506001600160a01b031660009081526003602052604090205490565b6060600180546102b79061153e565b61063f338383610a03565b5050565b61064d338361077d565b6106695760405162461bcd60e51b81526004016103a290611578565b61067584848484610ad1565b50505050565b60606102a282610b04565b600061069160075490565b90506106a1600780546001019055565b6106ab8382610c81565b6106b58183610c9b565b807f5d3ac5872118b949a1f8db596134a0e1587ecf18f2203bb1e3ea420c3c3f8fa9836040516106e5919061129c565b60405180910390a2505050565b6000908152600260205260409020546001600160a01b0316151590565b600081815260046020526040902080546001600160a01b0319166001600160a01b038416908117909155819061074482610528565b6001600160a01b03167f8c5be1e5ebec7d5bd14f71427d1e84f3dd0314c0f7b2291e5b200ac8c7c3b92560405160405180910390a45050565b6000610788826106f2565b6107e95760405162461bcd60e51b815260206004820152602c60248201527f4552433732313a206f70657261746f7220717565727920666f72206e6f6e657860448201526b34b9ba32b73a103a37b5b2b760a11b60648201526084016103a2565b60006107f483610528565b9050806001600160a01b0316846001600160a01b0316148061083b57506001600160a01b0380821660009081526005602090815260408083209388168352929052205460ff165b8061085f5750836001600160a01b03166108548461033a565b6001600160a01b0316145b949350505050565b826001600160a01b031661087a82610528565b6001600160a01b0316146108de5760405162461bcd60e51b815260206004820152602560248201527f4552433732313a207472616e736665722066726f6d20696e636f72726563742060448201526437bbb732b960d91b60648201526084016103a2565b6001600160a01b0382166109405760405162461bcd60e51b8152602060048201526024808201527f4552433732313a207472616e7366657220746f20746865207a65726f206164646044820152637265737360e01b60648201526084016103a2565b61094b60008261070f565b6001600160a01b03831660009081526003602052604081208054600192906109749084906115df565b90915550506001600160a01b03821660009081526003602052604081208054600192906109a29084906115f6565b909155505060008181526002602052604080822080546001600160a01b0319166001600160a01b0386811691821790925591518493918716917fddf252ad1be2c89b69c2b068fc378daa952ba7f163c4a11628f55a4df523b3ef91a4505050565b816001600160a01b0316836001600160a01b031603610a645760405162461bcd60e51b815260206004820152601960248201527f4552433732313a20617070726f766520746f2063616c6c65720000000000000060448201526064016103a2565b6001600160a01b03838116600081815260056020908152604080832094871680845294825291829020805460ff191686151590811790915591519182527f17307eab39ab6107e8899845ad3d59bd9653f200f220920489ca2b5937696c31910160405180910390a3505050565b610adc848484610867565b610ae884848484610d26565b6106755760405162461bcd60e51b81526004016103a29061160e565b6060610b0f826106f2565b610b755760405162461bcd60e51b815260206004820152603160248201527f45524337323155524953746f726167653a2055524920717565727920666f72206044820152703737b732bc34b9ba32b73a103a37b5b2b760791b60648201526084016103a2565b60008281526006602052604081208054610b8e9061153e565b80601f0160208091040260200160405190810160405280929190818152602001828054610bba9061153e565b8015610c075780601f10610bdc57610100808354040283529160200191610c07565b820191906000526020600020905b815481529060010190602001808311610bea57829003601f168201915b505050505090506000610c34604080518082019091526007815266697066733a2f2f60c81b602082015290565b90508051600003610c46575092915050565b815115610c78578082604051602001610c60929190611660565b60405160208183030381529060405292505050919050565b61085f84610e27565b61063f828260405180602001604052806000815250610f0e565b610ca4826106f2565b610d075760405162461bcd60e51b815260206004820152602e60248201527f45524337323155524953746f726167653a2055524920736574206f66206e6f6e60448201526d32bc34b9ba32b73a103a37b5b2b760911b60648201526084016103a2565b600082815260066020908152604090912082516104d792840190611175565b60006001600160a01b0384163b15610e1c57604051630a85bd0160e11b81526001600160a01b0385169063150b7a0290610d6a90339089908890889060040161168f565b6020604051808303816000875af1925050508015610da5575060408051601f3d908101601f19168201909252610da2918101906116cc565b60015b610e02573d808015610dd3576040519150601f19603f3d011682016040523d82523d6000602084013e610dd8565b606091505b508051600003610dfa5760405162461bcd60e51b81526004016103a29061160e565b805181602001fd5b6001600160e01b031916630a85bd0160e11b14905061085f565b506001949350505050565b6060610e32826106f2565b610e965760405162461bcd60e51b815260206004820152602f60248201527f4552433732314d657461646174613a2055524920717565727920666f72206e6f60448201526e3732bc34b9ba32b73a103a37b5b2b760891b60648201526084016103a2565b6000610ebc604080518082019091526007815266697066733a2f2f60c81b602082015290565b90506000815111610edc5760405180602001604052806000815250610f07565b80610ee684610f41565b604051602001610ef7929190611660565b6040516020818303038152906040525b9392505050565b610f188383611042565b610f256000848484610d26565b6104d75760405162461bcd60e51b81526004016103a29061160e565b606081600003610f685750506040805180820190915260018152600360fc1b602082015290565b8160005b8115610f925780610f7c816116e9565b9150610f8b9050600a83611718565b9150610f6c565b60008167ffffffffffffffff811115610fad57610fad6113a1565b6040519080825280601f01601f191660200182016040528015610fd7576020820181803683370190505b5090505b841561085f57610fec6001836115df565b9150610ff9600a8661172c565b6110049060306115f6565b60f81b81838151811061101957611019611740565b60200101906001600160f81b031916908160001a90535061103b600a86611718565b9450610fdb565b6001600160a01b0382166110985760405162461bcd60e51b815260206004820181905260248201527f4552433732313a206d696e7420746f20746865207a65726f206164647265737360448201526064016103a2565b6110a1816106f2565b156110ee5760405162461bcd60e51b815260206004820152601c60248201527f4552433732313a20746f6b656e20616c7265616479206d696e7465640000000060448201526064016103a2565b6001600160a01b03821660009081526003602052604081208054600192906111179084906115f6565b909155505060008181526002602052604080822080546001600160a01b0319166001600160a01b03861690811790915590518392907fddf252ad1be2c89b69c2b068fc378daa952ba7f163c4a11628f55a4df523b3ef908290a45050565b8280546111819061153e565b90600052602060002090601f0160209004810192826111a357600085556111e9565b82601f106111bc57805160ff19168380011785556111e9565b828001600101855582156111e9579182015b828111156111e95782518255916020019190600101906111ce565b506111f59291506111f9565b5090565b5b808211156111f557600081556001016111fa565b6001600160e01b03198116811461122457600080fd5b50565b60006020828403121561123957600080fd5b8135610f078161120e565b60005b8381101561125f578181015183820152602001611247565b838111156106755750506000910152565b60008151808452611288816020860160208601611244565b601f01601f19169290920160200192915050565b602081526000610f076020830184611270565b6000602082840312156112c157600080fd5b5035919050565b80356001600160a01b03811681146112df57600080fd5b919050565b600080604083850312156112f757600080fd5b611300836112c8565b946020939093013593505050565b60008060006060848603121561132357600080fd5b61132c846112c8565b925061133a602085016112c8565b9150604084013590509250925092565b60006020828403121561135c57600080fd5b610f07826112c8565b6000806040838503121561137857600080fd5b611381836112c8565b91506020830135801515811461139657600080fd5b809150509250929050565b634e487b7160e01b600052604160045260246000fd5b600067ffffffffffffffff808411156113d2576113d26113a1565b604051601f8501601f19908116603f011681019082821181831017156113fa576113fa6113a1565b8160405280935085815286868601111561141357600080fd5b858560208301376000602087830101525050509392505050565b6000806000806080858703121561144357600080fd5b61144c856112c8565b935061145a602086016112c8565b925060408501359150606085013567ffffffffffffffff81111561147d57600080fd5b8501601f8101871361148e57600080fd5b61149d878235602084016113b7565b91505092959194509250565b600080604083850312156114bc57600080fd5b6114c5836112c8565b9150602083013567ffffffffffffffff8111156114e157600080fd5b8301601f810185136114f257600080fd5b611501858235602084016113b7565b9150509250929050565b6000806040838503121561151e57600080fd5b611527836112c8565b9150611535602084016112c8565b90509250929050565b600181811c9082168061155257607f821691505b60208210810361157257634e487b7160e01b600052602260045260246000fd5b50919050565b60208082526031908201527f4552433732313a207472616e736665722063616c6c6572206973206e6f74206f6040820152701ddb995c881b9bdc88185c1c1c9bdd9959607a1b606082015260800190565b634e487b7160e01b600052601160045260246000fd5b6000828210156115f1576115f16115c9565b500390565b60008219821115611609576116096115c9565b500190565b60208082526032908201527f4552433732313a207472616e7366657220746f206e6f6e20455243373231526560408201527131b2b4bb32b91034b6b83632b6b2b73a32b960711b606082015260800190565b60008351611672818460208801611244565b835190830190611686818360208801611244565b01949350505050565b6001600160a01b03858116825284166020820152604081018390526080606082018190526000906116c290830184611270565b9695505050505050565b6000602082840312156116de57600080fd5b8151610f078161120e565b6000600182016116fb576116fb6115c9565b5060010190565b634e487b7160e01b600052601260045260246000fd5b60008261172757611727611702565b500490565b60008261173b5761173b611702565b500690565b634e487b7160e01b600052603260045260246000fdfea26469706673582212208536b497f74fe345030b10da7871c6cb8a2ffea566207821a390cdf1435ebb6564736f6c634300080e0033",
    "linkReferences": {}
  },
  "methodIdentifiers": {
    "approve(address,uint256)": "095ea7b3",
    "balanceOf(address)": "70a08231",
    "getApproved(uint256)": "081812fc",
    "isApprovedForAll(address,address)": "e985e9c5",
    "name()": "06fdde03",
    "ownerOf(uint256)": "6352211e",
    "safeMint(address,string)": "d204c45e",
    "safeTransferFrom(address,address,uint256)": "42842e0e",
    "safeTransferFrom(address,address,uint256,bytes)": "b88d4fde",
    "setApprovalForAll(address,bool)": "a22cb465",
    "supportsInterface(bytes4)": "01ffc9a7",
    "symbol()": "95d89b41",
    "tokenURI(uint256)": "c87b56dd",
    "transferFrom(address,address,uint256)": "23b872dd"
  },
  "id": 20
}