{
  "abi": [
    {
      "anonymous": false,
      "inputs": [
        {
          "indexed": false,
          "internalType": "address",
          "name": "exchangeAddress",
          "type": "address"
        }
      ],
      "name": "ExchangeCreated",
      "type": "event"
    },
    {
      "anonymous": false,
      "inputs": [
        {
          "indexed": false,
          "internalType": "address",
          "name": "exchangeAddress",
          "type": "address"
        }
      ],
      "name": "ExchangeDisabled",
      "type": "event"
    },
    {
      "anonymous": false,
      "inputs": [
        {
          "indexed": true,
          "internalType": "address",
          "name": "previousOwner",
          "type": "address"
        },
        {
          "indexed": true,
          "internalType": "address",
          "name": "newOwner",
          "type": "address"
        }
      ],
      "name": "OwnershipTransferred",
      "type": "event"
    },
    {
      "inputs": [
        {
          "internalType": "address",
          "name": "openLabNFTContract",
          "type": "address"
        },
        {
          "internalType": "uint16",
          "name": "royaltyPercentage",
          "type": "uint16"
        }
      ],
      "name": "createExchange",
      "outputs": [],
      "stateMutability": "nonpayable",
      "type": "function"
    },
    {
      "inputs": [
        {
          "internalType": "address",
          "name": "_exchange",
          "type": "address"
        }
      ],
      "name": "disableExchange",
      "outputs": [],
      "stateMutability": "nonpayable",
      "type": "function"
    },
    {
      "inputs": [
        {
          "internalType": "address",
          "name": "",
          "type": "address"
        }
      ],
      "name": "exchangeEnabled",
      "outputs": [
        {
          "internalType": "bool",
          "name": "",
          "type": "bool"
        }
      ],
      "stateMutability": "view",
      "type": "function"
    },
    {
      "inputs": [],
      "name": "owner",
      "outputs": [
        {
          "internalType": "address",
          "name": "",
          "type": "address"
        }
      ],
      "stateMutability": "view",
      "type": "function"
    },
    {
      "inputs": [],
      "name": "renounceOwnership",
      "outputs": [],
      "stateMutability": "nonpayable",
      "type": "function"
    },
    {
      "inputs": [
        {
          "internalType": "address",
          "name": "newOwner",
          "type": "address"
        }
      ],
      "name": "transferOwnership",
      "outputs": [],
      "stateMutability": "nonpayable",
      "type": "function"
    }
  ],
  "bytecode": {
    "object": "0x608060405234801561001057600080fd5b5061001a3361001f565b61006f565b600080546001600160a01b038381166001600160a01b0319831681178455604051919092169283917f8be0079c531659141344cd1fd0a4f28419497f9722a3daafe3b4186f6b6457e09190a35050565b612cba8061007e6000396000f3fe608060405234801561001057600080fd5b50600436106100625760003560e01c806324fc9adc146100675780633d5f32491461009f578063626d5f53146100b4578063715018a6146100c75780638da5cb5b146100cf578063f2fde38b146100ea575b600080fd5b61008a6100753660046104a7565b60036020526000908152604090205460ff1681565b60405190151581526020015b60405180910390f35b6100b26100ad3660046104a7565b6100fd565b005b6100b26100c23660046104c9565b6101dc565b6100b261035d565b6000546040516001600160a01b039091168152602001610096565b6100b26100f83660046104a7565b610393565b6000546001600160a01b031633146101305760405162461bcd60e51b815260040161012790610507565b60405180910390fd5b6001600160a01b03811660009081526003602052604090205460ff1661015557600080fd5b6001600160a01b0381166000908152600360205260408120805460ff19169055600280549161018383610552565b9091555050600180549060006101988361056b565b90915550506040516001600160a01b03821681527f8d4a5fce2c108a9d8e1f390d2efbfb812b1b6eac4c8b116f6c6913cbfdbe84489060200160405180910390a150565b6000546001600160a01b031633146102065760405162461bcd60e51b815260040161012790610507565b6127108161ffff16106102785760405162461bcd60e51b815260206004820152603460248201527f526f79616c74792070657263656e7461676520696e707574206d7573742062656044820152730206265747765656e203020616e642031303030360641b6064820152608401610127565b60003061028d6000546001600160a01b031690565b848460405161029b9061047e565b6001600160a01b03948516815292841660208401529216604082015261ffff9091166060820152608001604051809103906000f0801580156102e1573d6000803e3d6000fd5b506001600160a01b0381166000908152600360205260408120805460ff1916600190811790915580549293509061031783610552565b90915550506040516001600160a01b03821681527fc5aafabf2375aa682c7a7aa59c658d69d4ee1065df64ef6f0b33cac9e016bca69060200160405180910390a1505050565b6000546001600160a01b031633146103875760405162461bcd60e51b815260040161012790610507565b610391600061042e565b565b6000546001600160a01b031633146103bd5760405162461bcd60e51b815260040161012790610507565b6001600160a01b0381166104225760405162461bcd60e51b815260206004820152602660248201527f4f776e61626c653a206e6577206f776e657220697320746865207a65726f206160448201526564647265737360d01b6064820152608401610127565b61042b8161042e565b50565b600080546001600160a01b038381166001600160a01b0319831681178455604051919092169283917f8be0079c531659141344cd1fd0a4f28419497f9722a3daafe3b4186f6b6457e09190a35050565b6127028061058383390190565b80356001600160a01b03811681146104a257600080fd5b919050565b6000602082840312156104b957600080fd5b6104c28261048b565b9392505050565b600080604083850312156104dc57600080fd5b6104e58361048b565b9150602083013561ffff811681146104fc57600080fd5b809150509250929050565b6020808252818101527f4f776e61626c653a2063616c6c6572206973206e6f7420746865206f776e6572604082015260600190565b634e487b7160e01b600052601160045260246000fd5b6000600182016105645761056461053c565b5060010190565b60008161057a5761057a61053c565b50600019019056fe608060405260006005556008805461ffff60b01b191661027160b41b1790553480156200002b57600080fd5b5060405162002702380380620027028339810160408190526200004e91620000d3565b6000805460ff19166001179055600680546001600160a01b039586166001600160a01b0319918216179091556007805494861694909116939093179092556008805461ffff909316600160a01b026001600160b01b0319909316919093161717905562000138565b80516001600160a01b0381168114620000ce57600080fd5b919050565b60008060008060808587031215620000ea57600080fd5b620000f585620000b6565b93506200010560208601620000b6565b92506200011560408601620000b6565b9150606085015161ffff811681146200012d57600080fd5b939692955090935050565b6125ba80620001486000396000f3fe6080604052600436106101bb5760003560e01c80636aa633b6116100ec578063c6aea0181161008a578063deb4a6d211610064578063deb4a6d214610536578063ed252e9d14610549578063fc86dea714610569578063ff5912cd1461059957600080fd5b8063c6aea018146104cd578063c76acc0f146104e2578063d17a762a1461050257600080fd5b80638a71bb2d116100c65780638a71bb2d14610456578063966dae0e14610478578063a512542114610498578063b3b046bb146104b857600080fd5b80636aa633b6146103ec5780637f0f4d8314610406578063880cdc311461043657600080fd5b80633cf07b711161015957806349c054ad1161013357806349c054ad1461036c5780634a7dc8e01461038c578063521a7c17146103ac57806363b2f3c9146103cc57600080fd5b80633cf07b71146103015780634273601c1461032157806345755dd61461035957600080fd5b80631bc8637e116101955780631bc8637e1461025457806322403afc1461027457806322c9b994146102875780633b29d36b146102cc57600080fd5b8063039114b5146101ff578063132018961461022157806315332e871461024157600080fd5b366101fa57604080513381523460208201527f88a5966d370b9919b20f3e2c13ff65706f196a4e32cc2c12bf57088f88525874910160405180910390a1005b600080fd5b34801561020b57600080fd5b5061021f61021a366004611dbd565b6105b9565b005b34801561022d57600080fd5b5061021f61023c366004611e28565b610630565b61021f61024f366004611eda565b6106c0565b34801561026057600080fd5b5061021f61026f366004611ef3565b610839565b61021f610282366004611f95565b6108a7565b34801561029357600080fd5b506102b76102a2366004611dbd565b60036020526000908152604090205460ff1681565b60405190151581526020015b60405180910390f35b3480156102d857600080fd5b506008546102ee90600160b01b900461ffff1681565b60405161ffff90911681526020016102c3565b34801561030d57600080fd5b5061021f61031c366004611dbd565b610c24565b34801561032d57600080fd5b50600754610341906001600160a01b031681565b6040516001600160a01b0390911681526020016102c3565b61021f610367366004611eda565b610c94565b34801561037857600080fd5b5061021f610387366004611e28565b610f20565b34801561039857600080fd5b5061021f6103a7366004611dbd565b610fac565b3480156103b857600080fd5b50600854610341906001600160a01b031681565b3480156103d857600080fd5b5061021f6103e7366004611eda565b61101c565b3480156103f857600080fd5b506000546102b79060ff1681565b34801561041257600080fd5b506102b7610421366004611dbd565b60046020526000908152604090205460ff1681565b34801561044257600080fd5b5061021f610451366004611dbd565b611189565b34801561046257600080fd5b506008546102ee90600160a01b900461ffff1681565b34801561048457600080fd5b50600654610341906001600160a01b031681565b3480156104a457600080fd5b5061021f6104b3366004611dbd565b6111f7565b3480156104c457600080fd5b5061021f611264565b3480156104d957600080fd5b5061021f6113af565b3480156104ee57600080fd5b5061021f6104fd366004611e28565b611407565b34801561050e57600080fd5b5061052261051d366004611eda565b611493565b6040516102c3989796959493929190612099565b61021f61054436600461210d565b611604565b34801561055557600080fd5b5061021f610564366004611dbd565b6118e1565b34801561057557600080fd5b506102b7610584366004611dbd565b60026020526000908152604090205460ff1681565b3480156105a557600080fd5b5061021f6105b4366004611e28565b61194e565b6007546001600160a01b031633146105ec5760405162461bcd60e51b81526004016105e390612154565b60405180910390fd5b60005460ff1661060e5760405162461bcd60e51b81526004016105e3906121a1565b600880546001600160a01b0319166001600160a01b0392909216919091179055565b6007546001600160a01b0316331461065a5760405162461bcd60e51b81526004016105e390612154565b60005460ff1661067c5760405162461bcd60e51b81526004016105e3906121a1565b60005b81518110156106bc576106aa82828151811061069d5761069d6121d8565b6020026020010151610c24565b806106b481612204565b91505061067f565b5050565b6007546001600160a01b031633146106ea5760405162461bcd60e51b81526004016105e390612154565b8060006005541180156106fd5750600081115b801561070b57506005548111155b6107275760405162461bcd60e51b81526004016105e39061221d565b81600160008281526001602052604090206005015460ff16600381111561075057610750612061565b1461076d5760405162461bcd60e51b81526004016105e39061224a565b60005460ff1661078f5760405162461bcd60e51b81526004016105e3906121a1565b60008381526001602052604090819020805460028201546003830154935163a9059cbb60e01b81526001600160a01b0392831660048201819052602482018690529394929091169190829063a9059cbb906044016020604051808303816000875af1158015610802573d6000803e3d6000fd5b505050506040513d601f19601f820116820180604052508101906108269190612275565b50610830876119da565b50505050505050565b6007546001600160a01b031633146108635760405162461bcd60e51b81526004016105e390612154565b60005460ff166108855760405162461bcd60e51b81526004016105e3906121a1565b6008805461ffff909216600160a01b0261ffff60a01b19909216919091179055565b600054610100900460ff16156108cf5760405162461bcd60e51b81526004016105e390612292565b6000805461ff001916610100179055826001600160a01b03811615610956576001600160a01b03811660009081526004602052604090205460ff166109565760405162461bcd60e51b815260206004820152601760248201527f5061796d656e7420746f6b656e206e6f742076616c696400000000000000000060448201526064016105e3565b60005460ff166109785760405162461bcd60e51b81526004016105e3906121a1565b336001600160a01b038716146109eb5760405162461bcd60e51b815260206004820152603260248201527f55736572732063616e206e6f74207375626d6974206a6f6273206f6e20626568604482015271616c66206f66206f7468657220757365727360701b60648201526084016105e3565b8415610a1d576001600160a01b03841615610a185760405162461bcd60e51b81526004016105e3906122ba565b610a43565b6001600160a01b038416610a435760405162461bcd60e51b81526004016105e3906122ba565b60058054906000610a5383612204565b9091555050600554600090815260016020818152604090922080546001600160a01b03808b166001600160a01b031992831617835592820180548a1515600160a01b0260ff60a01b1990911617905560028201805493891693909116929092179091556003810185905583519091610ad2916004840191860190611d0f565b5060058101805460ff199081169091556001600160a01b0388811660009081526002602052604090819020805490931660011790925590516323b872dd60e01b815233600482015230602482015260448101869052908616906323b872dd906064016020604051808303816000875af1158015610b53573d6000803e3d6000fd5b505050506040513d601f19601f82011682018060405250810190610b779190612275565b50604080516001600160a01b0387168152602081018690527f88a5966d370b9919b20f3e2c13ff65706f196a4e32cc2c12bf57088f88525874910160405180910390a160058054908201546040516001600160a01b038a1692917f2cf6a978a2a35e8d4147f835dce659e0f98f341ccf6562cb0dd144a93a31ff4291610c08918b918b918b918b9160ff1690612322565b60405180910390a350506000805461ff00191690555050505050565b6007546001600160a01b03163314610c4e5760405162461bcd60e51b81526004016105e390612154565b60005460ff16610c705760405162461bcd60e51b81526004016105e3906121a1565b6001600160a01b03166000908152600360205260409020805460ff19166001179055565b806000600554118015610ca75750600081115b8015610cb557506005548111155b610cd15760405162461bcd60e51b81526004016105e39061221d565b816000808281526001602052604090206005015460ff166003811115610cf957610cf9612061565b14610d385760405162461bcd60e51b815260206004820152600f60248201526e2537b11034b9903737ba1037b832b760891b60448201526064016105e3565b60008381526001602052604090205483906001600160a01b03163314610d705760405162461bcd60e51b81526004016105e39061236a565b600054610100900460ff1615610d985760405162461bcd60e51b81526004016105e390612292565b6000805461ff001981166101001790915560ff16610dc85760405162461bcd60e51b81526004016105e3906121a1565b60008481526001602052604081206003810154909190606490610dec9060626123ae565b610df691906123cd565b90506000818360030154610e0a91906123ef565b6002840154845460405163a9059cbb60e01b81526001600160a01b03918216600482015260248101869052929350169063a9059cbb906044016020604051808303816000875af1158015610e62573d6000803e3d6000fd5b505050506040513d601f19601f82011682018060405250810190610e869190612275565b50600283015460075460405163a9059cbb60e01b81526001600160a01b0391821660048201526024810184905291169063a9059cbb906044016020604051808303816000875af1158015610ede573d6000803e3d6000fd5b505050506040513d601f19601f82011682018060405250810190610f029190612275565b50610f0c876119da565b50506000805461ff00191690555050505050565b6007546001600160a01b03163314610f4a5760405162461bcd60e51b81526004016105e390612154565b60005460ff16610f6c5760405162461bcd60e51b81526004016105e3906121a1565b60005b81518110156106bc57610f9a828281518110610f8d57610f8d6121d8565b60200260200101516118e1565b80610fa481612204565b915050610f6f565b6007546001600160a01b03163314610fd65760405162461bcd60e51b81526004016105e390612154565b60005460ff16610ff85760405162461bcd60e51b81526004016105e3906121a1565b6001600160a01b03166000908152600460205260409020805460ff19166001179055565b80600060055411801561102f5750600081115b801561103d57506005548111155b6110595760405162461bcd60e51b81526004016105e39061221d565b60005460ff1661107b5760405162461bcd60e51b81526004016105e3906121a1565b3360009081526003602052604090205460ff166110eb5760405162461bcd60e51b815260206004820152602860248201527f4f6e6c792076616c6964617465642070726f7669646572732063616e20616363604482015267657074206a6f627360c01b60648201526084016105e3565b6000828152600160208190526040918290208082018054336001600160a01b031990911681179182905560058301805460ff191685179055825460038401549551939591946001600160a01b039091169388937fa028bd3103b9490a79c5471bcbfbff70dbee1dd352425365cbde3ec73bfacbe79361117c93600160a01b90920460ff1692909160048a01916124df565b60405180910390a4505050565b6007546001600160a01b031633146111b35760405162461bcd60e51b81526004016105e390612154565b60005460ff166111d55760405162461bcd60e51b81526004016105e3906121a1565b600780546001600160a01b0319166001600160a01b0392909216919091179055565b6007546001600160a01b031633146112215760405162461bcd60e51b81526004016105e390612154565b60005460ff166112435760405162461bcd60e51b81526004016105e3906121a1565b6001600160a01b03166000908152600460205260409020805460ff19169055565b6007546001600160a01b0316331461128e5760405162461bcd60e51b81526004016105e390612154565b6000600554116112d65760405162461bcd60e51b81526020600482015260136024820152724e6f206a6f6273206f6e2065786368616e676560681b60448201526064016105e3565b60015b60055481116113ac57600081815260016020526040812090600582015460ff16600381111561130a5761130a612061565b036113995760028101548154600383015460405163a9059cbb60e01b81526001600160a01b039283166004820152602481019190915291169063a9059cbb906044016020604051808303816000875af115801561136b573d6000803e3d6000fd5b505050506040513d601f19601f8201168201806040525081019061138f9190612275565b50611399826119da565b50806113a481612204565b9150506112d9565b50565b6007546001600160a01b031633146113d95760405162461bcd60e51b81526004016105e390612154565b60005460ff166113fb5760405162461bcd60e51b81526004016105e3906121a1565b6000805460ff19169055565b6007546001600160a01b031633146114315760405162461bcd60e51b81526004016105e390612154565b60005460ff166114535760405162461bcd60e51b81526004016105e3906121a1565b60005b81518110156106bc57611481828281518110611474576114746121d8565b6020026020010151610fac565b8061148b81612204565b915050611456565b6001602081905260009182526040909120805491810154600282015460038301546004840180546001600160a01b039687169680861696600160a01b90960460ff169594169391906114e490612406565b80601f016020809104026020016040519081016040528092919081815260200182805461151090612406565b801561155d5780601f106115325761010080835404028352916020019161155d565b820191906000526020600020905b81548152906001019060200180831161154057829003601f168201915b5050506005840154600685018054949560ff90921694919350915061158190612406565b80601f01602080910402602001604051908101604052809291908181526020018280546115ad90612406565b80156115fa5780601f106115cf576101008083540402835291602001916115fa565b820191906000526020600020905b8154815290600101906020018083116115dd57829003601f168201915b5050505050905088565b8160006005541180156116175750600081115b801561162557506005548111155b6116415760405162461bcd60e51b81526004016105e39061221d565b82600160008281526001602052604090206005015460ff16600381111561166a5761166a612061565b146116875760405162461bcd60e51b81526004016105e39061224a565b600054610100900460ff16156116af5760405162461bcd60e51b81526004016105e390612292565b6000805461ff001981166101001790915560ff166116df5760405162461bcd60e51b81526004016105e3906121a1565b600084815260016020819052604082208054918101546002820154600854600384015493956001600160a01b03958616959384169492909316929161ffff600160b01b830481169261173c92600160a01b909104909116906123ae565b61174691906123cd565b9050600081866003015461175a91906123ef565b600854604051636902622f60e11b81529192506001600160a01b03169063d204c45e9061178d9088908d90600401612518565b600060405180830381600087803b1580156117a757600080fd5b505af11580156117bb573d6000803e3d6000fd5b50508a516117d4925060068901915060208c0190611d0f565b5060405163a9059cbb60e01b81526001600160a01b0385811660048301526024820183905284169063a9059cbb906044016020604051808303816000875af1158015611824573d6000803e3d6000fd5b505050506040513d601f19601f820116820180604052508101906118489190612275565b5060075460405163a9059cbb60e01b81526001600160a01b039182166004820152602481018490529084169063a9059cbb906044016020604051808303816000875af115801561189c573d6000803e3d6000fd5b505050506040513d601f19601f820116820180604052508101906118c09190612275565b506118ca8a611b67565b50506000805461ff00191690555050505050505050565b6007546001600160a01b0316331461190b5760405162461bcd60e51b81526004016105e390612154565b60005460ff1661192d5760405162461bcd60e51b81526004016105e3906121a1565b6001600160a01b03166000908152600360205260409020805460ff19169055565b6007546001600160a01b031633146119785760405162461bcd60e51b81526004016105e390612154565b60005460ff1661199a5760405162461bcd60e51b81526004016105e3906121a1565b60005b81518110156106bc576119c88282815181106119bb576119bb6121d8565b60200260200101516111f7565b806119d281612204565b91505061199d565b8060006005541180156119ed5750600081115b80156119fb57506005548111155b611a175760405162461bcd60e51b81526004016105e39061221d565b816000808281526001602052604090206005015460ff166003811115611a3f57611a3f612061565b14611a7e5760405162461bcd60e51b815260206004820152600f60248201526e2537b11034b9903737ba1037b832b760891b60448201526064016105e3565b60008381526001602052604090205483906001600160a01b03163314611ab65760405162461bcd60e51b81526004016105e39061236a565b60005460ff16611ad85760405162461bcd60e51b81526004016105e3906121a1565b60008481526001602081905260409182902060058101805460ff1916600390811790915591810154815483830154945192946001600160a01b03808416959216938a937f70271a080b2cffe4118373381ee33cf74ba124c3a65b0c72ae3ca9324fbfdbdf93611b5893600160a01b90920460ff169260048a0191906124df565b60405180910390a45050505050565b806000600554118015611b7a5750600081115b8015611b8857506005548111155b611ba45760405162461bcd60e51b81526004016105e39061221d565b81600160008281526001602052604090206005015460ff166003811115611bcd57611bcd612061565b14611bea5760405162461bcd60e51b81526004016105e39061224a565b6000838152600160208190526040909120015483906001600160a01b03163314611c675760405162461bcd60e51b815260206004820152602860248201527f4f6e6c79207468652070726f76696465722063616e2063616c6c207468697320604482015267333ab731ba34b7b760c11b60648201526084016105e3565b60005460ff16611c895760405162461bcd60e51b81526004016105e3906121a1565b60008481526001602081905260409182902060058101805460ff191660029081179091559181015481546003830154945192946001600160a01b03808416959216938a937fbfaef1e8db7a3b3e330be4135561a5e001400e63be67003a475c2a13dc32289e93611b5893600160a01b90920460ff169260048a01919060068b0190612544565b828054611d1b90612406565b90600052602060002090601f016020900481019282611d3d5760008555611d83565b82601f10611d5657805160ff1916838001178555611d83565b82800160010185558215611d83579182015b82811115611d83578251825591602001919060010190611d68565b50611d8f929150611d93565b5090565b5b80821115611d8f5760008155600101611d94565b6001600160a01b03811681146113ac57600080fd5b600060208284031215611dcf57600080fd5b8135611dda81611da8565b9392505050565b634e487b7160e01b600052604160045260246000fd5b604051601f8201601f1916810167ffffffffffffffff81118282101715611e2057611e20611de1565b604052919050565b60006020808385031215611e3b57600080fd5b823567ffffffffffffffff80821115611e5357600080fd5b818501915085601f830112611e6757600080fd5b813581811115611e7957611e79611de1565b8060051b9150611e8a848301611df7565b8181529183018401918481019088841115611ea457600080fd5b938501935b83851015611ece5784359250611ebe83611da8565b8282529385019390850190611ea9565b98975050505050505050565b600060208284031215611eec57600080fd5b5035919050565b600060208284031215611f0557600080fd5b813561ffff81168114611dda57600080fd5b80151581146113ac57600080fd5b600082601f830112611f3657600080fd5b813567ffffffffffffffff811115611f5057611f50611de1565b611f63601f8201601f1916602001611df7565b818152846020838601011115611f7857600080fd5b816020850160208301376000918101602001919091529392505050565b600080600080600060a08688031215611fad57600080fd5b8535611fb881611da8565b94506020860135611fc881611f17565b93506040860135611fd881611da8565b925060608601359150608086013567ffffffffffffffff811115611ffb57600080fd5b61200788828901611f25565b9150509295509295909350565b6000815180845260005b8181101561203a5760208185018101518683018201520161201e565b8181111561204c576000602083870101525b50601f01601f19169290920160200192915050565b634e487b7160e01b600052602160045260246000fd5b6004811061209557634e487b7160e01b600052602160045260246000fd5b9052565b6001600160a01b03898116825288811660208301528715156040830152861660608201526080810185905261010060a082018190526000906120dd83820187612014565b90506120ec60c0840186612077565b82810360e08401526120fe8185612014565b9b9a5050505050505050505050565b6000806040838503121561212057600080fd5b82359150602083013567ffffffffffffffff81111561213e57600080fd5b61214a85828601611f25565b9150509250929050565b6020808252602d908201527f4f6e6c792074686520666163746f7279206f776e65722063616e2063616c6c2060408201526c3a3434b990333ab731ba34b7b760991b606082015260800190565b60208082526017908201527f45786368616e6765206973206e6f7420656e61626c6564000000000000000000604082015260600190565b634e487b7160e01b600052603260045260246000fd5b634e487b7160e01b600052601160045260246000fd5b600060018201612216576122166121ee565b5060010190565b602080825260139082015272129bd8881251081a5cc81b9bdd081d985b1a59606a1b604082015260600190565b6020808252601190820152704a6f62206973206e6f742061637469766560781b604082015260600190565b60006020828403121561228757600080fd5b8151611dda81611f17565b6020808252600e908201526d4e6f2072652d656e7472616e637960901b604082015260600190565b60208082526042908201527f4a6f622063616e206e6f74206265207375626d69747465642077697468206e6160408201527f7469766520746f6b656e20616e642070617961626c6520455243323020746f6b60608201526132b760f11b608082015260a00190565b851515815260018060a01b038516602082015283604082015260a06060820152600061235160a0830185612014565b90506123606080830184612077565b9695505050505050565b60208082526024908201527f4f6e6c792074686520757365722063616e2063616c6c20746869732066756e636040820152633a34b7b760e11b606082015260800190565b60008160001904831182151516156123c8576123c86121ee565b500290565b6000826123ea57634e487b7160e01b600052601260045260246000fd5b500490565b600082821015612401576124016121ee565b500390565b600181811c9082168061241a57607f821691505b60208210810361243a57634e487b7160e01b600052602260045260246000fd5b50919050565b8054600090600181811c908083168061245a57607f831692505b6020808410820361247b57634e487b7160e01b600052602260045260246000fd5b8388526020880182801561249657600181146124a7576124d2565b60ff198716825282820197506124d2565b60008981526020902060005b878110156124cc578154848201529086019084016124b3565b83019850505b5050505050505092915050565b84151581528360208201526080604082015260006125006080830185612440565b905061250f6060830184612077565b95945050505050565b6001600160a01b038316815260406020820181905260009061253c90830184612014565b949350505050565b851515815284602082015260a06040820152600061256560a0830186612440565b6125726060840186612077565b8281036080840152611ece818561244056fea2646970667358221220cfbd5c6ff12300e6c35eaf90b17fc6b57c8e59b9f5862620f097c101a1c8880364736f6c634300080e0033a264697066735822122094875f9b62d77517c548f831c9ce5ffba555ce498e7e23d98f59fa1d7100100464736f6c634300080e0033",
    "linkReferences": {}
  },
  "methodIdentifiers": {
    "createExchange(address,uint16)": "626d5f53",
    "disableExchange(address)": "3d5f3249",
    "exchangeEnabled(address)": "24fc9adc",
    "owner()": "8da5cb5b",
    "renounceOwnership()": "715018a6",
    "transferOwnership(address)": "f2fde38b"
  },
  "id": 16
}